:020000040800F2
:100000000080012051040008B9020008BD02000868
:10001000C1020008C5020008C90200080000000073
:10002000000000000000000000000000CD020008F9
:10003000D102000800000000D502000839120008B3
:10004000990400089904000899040008990400081C
:10005000990400089904000899040008990400080C
:1000600099040008990400089904000899040008FC
:1000700099040008990400089904000899040008EC
:1000800099040008990400089904000899040008DC
:100090009904000899040008990400083104000834
:1000A00099040008990400089904000899040008BC
:1000B000A9030008790300089904000899040008BE
:1000C000990400089904000899040008D90300085D
:1000D00099040008290400089904000899040008FC
:1000E0009904000899040008E9020008990400082E
:1000F0009904000899040008990400080000000011
:10010000990400080000000099040008DD030008BD
:10011000990400089904000899040008990400084B
:10012000990400089904000899040008990400083B
:10013000990400089904000899040008990400082B
:10014000990400089904000899040008D9020008DD
:1001500010B5054C237833B9044B13B10448AFF301
:1001600000800123237010BD000900200000000062
:10017000E482000808B5034B1BB103490348AFF301
:10018000008008BD0000000004090020E48200088F
:1001900008B5034B9847013818BF012008BD00BFC0
:1001A000CD29000808B54FF48060264B264C274D1A
:1001B0009847274B9847274B002098472648274BBE
:1001C00098472748274B98472748284B9847284B5C
:1001D0002848984740F20A60A04740F20260A047D2
:1001E00040F20360A04740F20460A04740F205607F
:1001F000A04740F20E60A0474FF4C060A04740F215
:100200000C50A0471C4B1D4C98471D4B98471D4B4D
:1002100098471D4B98471D4A1D481E4B0121A0477A
:100220001D4B1E4C98471E481E4B98471E4B4FF4C3
:10023000AF7098471D4B4FF496709847A847A0475A
:10024000FCE700BFC50B0008910C0008F12900086D
:10025000B50B0008CD060008000400406910000836
:10026000003C0040110F000800280140BD050008B7
:10027000F510000800380140D91200088116000866
:100280002913000811290008B51100089C830008F3
:100290001C0900200800002029120008CD140008C5
:1002A00091010008C1140008D94E0008B94E000899
:1002B000004B184789760008704700BFFEE700BF73
:1002C000FEE700BF704700BF704700BF704700BF28
:1002D000704700BF704700BF0148024B184700BF7E
:1002E0001C090020F91E0008194BDB791BB9194BBA
:1002F0004FF48020184770B51020174D174CA847B1
:100300001120A0470028FBD01A20A8471B20A04797
:100310000028FBD01820A8471920A0470028FBD0B0
:100320000F4B104C02209847A0470828FCD10E4ADA
:100330000E4B106898470E4B40F20C5098470448FB
:100340000C4B9847BDE87040024B4FF48020184793
:100350001C090020F50600084D0D0008B50E000828
:10036000AD0C0008C10C0008E40C0020390D000899
:10037000910C0008A525000810B50748074B01217E
:10038000984700B910BD064B9847BDE81040024899
:10039000044B0121184700BF0004004075100008FD
:1003A000314700088910000810B5084B01214FF0B3
:1003B0008040984700B910BD054B9847BDE81040F4
:1003C000044B01214FF08040184700BF7510000812
:1003D0000547000889100008704700BF10B50D4898
:1003E0000D4B0121984780B90C4C01460948A047A4
:1003F00008480121A0470A4B4FF40022C3F884208B
:10040000BFF34F8FBFF36F8F10BDBDE81040054B9A
:10041000184700BF003C0040810F0008550F00083E
:1004200000E100E0AD680008004B18477563000864
:1004300010B5054B4FF40070984700B910BDBDE8EA
:100440001040024B184700BFE10600086574000821
:10045000002103E00B4B5B58435004310A480B4B1F
:1004600042189A42F6D30A4A02E0002342F8043BBB
:10047000084B9A42F9D300F011F807F00BFAFFF796
:1004800091FE7047A8A0000800000020FC08002092
:1004900000090020D0DF0020FEE70000444B19686F
:1004A00041F00101196082B0596859600020019043
:1004B000019B44F61F62934205D8019B01330193CF
:1004C000019B9342F9D93A4900234B60CB620B68F8
:1004D00023F0A8534FF47F0223F410230B608A60AB
:1004E0000A6822F480220A600A6842F480324FF6D9
:1004F000FF730A6001E0013B02D00A689003FAD55D
:100500002B4B1A68910351D5DA692A492A4842F0DF
:100510008052DA610A6842F440420A605A685A60BE
:100520005A685A605A6842F480625A60DA6A024035
:10053000DA62DA6A42F0011242F40062DA625A6860
:1005400022F0C04222F470125A605A6842F480329B
:100550005A601A6842F080621A601A681201FCD56B
:100560001968134A41F08071196013689801FCD52D
:10057000104A136843F4803313605368D903FCD5E1
:1005800013680C4943F4003313604B689A03FCD59D
:10059000074A536823F003035360536843F0020390
:1005A000536053681B07FCD502B07047FEE700BFDD
:1005B000001002400070004000F0FEBF836823F08E
:1005C00001038360704700BF826842F0080200F1B7
:1005D000080382601A681107FCD4826842F00402A2
:1005E00082601A685207FCD4704700BF2C4B10B4CD
:1005F000D3F8004424EA0004C3F80044D3F80444C8
:1006000024EA0004C3F80444D3F8084424EA0004AC
:10061000C3F80844D3F80C4424EA0004C3F80C449B
:10062000C44369B1012904D1D3F804140143C3F8C8
:100630000414012A0CD0022A24D0B2B110BC704795
:10064000D3F80014012A41EA0001C3F80014F2D1E2
:10065000134BD3F808241440C3F80844D3F80C24EF
:1006600010BC1043C3F80C0470470D4BD3F808249A
:100670001043C3F80804D3F80C241440C3F80C4406
:1006800010BC7047064B10BCD3F808240243C3F8D3
:100690000824D3F80C241043C3F80C04704700BF9F
:1006A00000000140034AD2F800340343C2F800348A
:1006B000704700BF00000140034AD2F8003423EA2B
:1006C0000003C2F80034704700000140034AD2F82A
:1006D000043423EA0003C2F80434704700000140E8
:1006E000034BD3F81434184214BF01200020704784
:1006F00000000140014BC3F81404704700000140A2
:1007000011F0100F01F00F0C04D0042A00F0C68184
:100710004CEA020C482900F02781282900F0828049
:10072000DA0705D5026822F00F024CEA02020260E5
:10073000990705D5026822F0F00242EA0C12026025
:100740005A0705D5026822F4706242EA0C22026060
:10075000190705D5026822F4704242EA0C320260A1
:10076000DA0605D5026822F4702242EA0C420260E1
:10077000990605D5026822F4700242EA0C52026022
:100780005A0605D5026822F0706242EA0C620260E5
:10079000190605D5026822F0704242EA0C72026026
:1007A000DA0505D5426822F00F024CEA02024260E7
:1007B000990505D5426822F0F00242EA0C12426027
:1007C0005A0505D5426822F4706242EA0C22426062
:1007D000190505D5426822F4704242EA0C324260A3
:1007E000DA0405D5426822F4702242EA0C424260E3
:1007F000990405D5426822F4700242EA0C52426024
:100800005A0405D5426822F0706242EA0C624260E6
:100810001B0440F14281436823F0704343EA0C73A8
:1008200043607047D90707D5026822F00F02012103
:100830004CEA02024161026013F0020106D0026834
:10084000416122F0F00242EA0C12026013F004014E
:1008500006D00268416122F4706242EA0C22026012
:1008600013F0080106D00268416122F4704242EAA6
:100870000C32026013F0100106D00268416122F4CC
:10088000702242EA0C42026013F0200106D0026896
:10089000416122F4700242EA0C52026013F04001FE
:1008A00006D00268416122F0706242EA0C62026086
:1008B00013F0800106D00268416122F0704242EAE2
:1008C0000C72026013F4807106D04268416122F01C
:1008D0000F024CEA0202426013F4007106D0426833
:1008E000416122F0F00242EA0C12426013F480618E
:1008F00006D04268416122F4706242EA0C224260F2
:1009000013F4006106D04268416122F4704242EA69
:100910000C32426013F4805106D04268416122F4E7
:10092000702242EA0C42426013F4005106D0426841
:10093000416122F4700242EA0C52426013F4804199
:1009400006D04268416122F0706242EA0C62426065
:1009500013F4004300F0A1804268436122F0704329
:1009600043EA0C7343607047DA0707D5026822F048
:100970000F0201214CEA02020161026013F0020140
:1009800006D00268016122F0F00242EA0C12026015
:1009900013F0040106D00268016122F4706242EA99
:1009A0000C22026013F0080106D00268016122F4F3
:1009B000704242EA0C32026013F0100106D0026865
:1009C000016122F4702242EA0C42026013F020011D
:1009D00006D00268016122F4700242EA0C52026001
:1009E00013F0400106D00268016122F0706242EA11
:1009F0000C62026013F0800106D00268016122F0EF
:100A0000704242EA0C72026013F4807106D04268B0
:100A1000016122F00F024CEA0202426013F40071FD
:100A200006D04268016122F0F00242EA0C124260F4
:100A300013F4806106D04268016122F4706242EAD8
:100A40000C22426013F4006106D04268016122F476
:100A5000704242EA0C32426013F4805106D0426880
:100A6000016122F4702242EA0C42426013F4005108
:100A700006D04268016122F4700242EA0C524260E0
:100A800013F4804106D04268016122F0706242EAAC
:100A90000C62426013F4004306D17047C26B1A43E4
:100AA0004CF0030CC26335E64268036122F07043E8
:100AB00043EA0C73436070470161704741617047BE
:100AC0000AB1016170474161704700BF83680B4202
:100AD00014BF01200020704700281A4B00F4401278
:100AE000B4BFDB695B68B2F5401F10B41FFA80FC2D
:100AF0001FD0C20214D5C0F303440322A24023EA4C
:100B0000020343F0E06321B1420D12010CFA02F23C
:100B100013430C4A10BC0028B4BFD3615360704724
:100B2000420D12010CFA02F223EA020343F0E063E1
:100B3000E9E7044C626822F0E06223F0E06362605F
:100B4000E1E700BF0000014001F003039B000F221A
:100B5000032902FA03FC09D8154A9840936823EA4E
:100B60000C0393609368184390607047072909D875
:100B70000F499840CB6823EA0C03CB60CB6818433D
:100B8000C86070470B2900FA03F0094907D80B69C0
:100B900023EA0C030B610B691843086170474B692A
:100BA00023EA0C034B614B6918434861704700BF4F
:100BB00000000140024A136823F08003136070476D
:100BC00000000140034B40F0BF6040F40030D860AB
:100BD000704700BF00ED00E0234B10B4DC6804F464
:100BE000E064B4F5E06F33D0DC6804F4E064B4F59D
:100BF000C06F17D0DC6804F4E064B4F5A06F0DD0CA
:100C0000DC6804F4E064B4F5806F25D0DC6804F49B
:100C1000E064B4F5407F23D0144CDC6002F00302A2
:100C2000022302E002F007020323114C01FA03F34E
:100C3000134321181B01DBB281F800334209012361
:100C400000F01F0003FA00F044F8220010BC7047C7
:100C500002F00F020423E8E702F001020123E4E7B7
:100C600000221346E1E700BF00ED00E00005FA05B1
:100C700000E100E04309054900F01F000122203394
:100C800002FA00F041F82300704700BF00E100E0E5
:100C9000830903F1804303F5043300F01F00196852
:100CA000012202FA00F0084318607047034A5368B3
:100CB00023F0030303435360704700BF001002405A
:100CC000024B586800F00C00704700BF0010024053
:100CD000164A5368D26A23F0805323F4404322F02B
:100CE00000520B2809D8DFE800F0060606060816B1
:100CF00008160C0C0C0C43EA80330C494B60CA629A
:100D000070470B4901EA8030084942F00052034322
:100D10004B60CA627047074901EA803003430349C8
:100D200043F080534B60CA62704700BF001002401E
:100D300000C0FCFF00C0FEFF034A536823F44003D9
:100D400003435360704700BF00100240830903F162
:100D5000804303F5043300F01F001968012202FAF2
:100D600000F008431860704710B54C4C844694E876
:100D70000F0088B00DF1200E10340EE90F0094E83A
:100D800003006B4683E8030002AB83E80300444A98
:100D90005368C3F38103012B40D0022B15D1536854
:100DA000D9033DD43F483E4A5368516852688C008D
:100DB000C3F3834356D551006AD543F030033F2B2C
:100DC00008BFC0EB801001D050E03748344B596861
:100DD0005A685B6808ACC1F303112144C2F30222D4
:100DE000C3F3C22311F8101C2244234412F8202C10
:100DF00013F8183C20FA01F1BCF1030F4BD8DFE8DF
:100E00000CF0040A060221FA03F008B010BD21FA22
:100E100002F008B010BD084608B010BD2348D5E761
:100E2000D36A2349214813F0804FD36A18BF08467C
:100E3000DB030FD5D16AD36AC3F303230F2BC1F3AE
:100E4000031203F1020308BF14230132B0FBF2F0D6
:100E500003FB00F0124BDB6A03F00F030133B0FB1E
:100E6000F3F0A0E7520004D543F0200303FB000099
:100E7000ACE70F2BFAD00D2B03F1020205D100EBEA
:100E80004003400800EB4300A0E702FB00F09DE7B1
:100E900043F01003EAE70020B7E700BFFC82000838
:100EA0000010024000093D0000127A00001BB7004C
:100EB000006CDC02830903F1804303F5043300F086
:100EC0001F001B6823FA00F000F00100704700BF0C
:100ED00010B4D1E900348A6823431343D1E90324D1
:100EE00013432343D1E905410268234302F44152ED
:100EF0000B4313430360C36910BC23F40063C36155
:100F0000704700BF036843F040030360704700BFB1
:100F1000036823F040030360704700BFC16070475F
:100F2000C06880B2704700BF012903D002290BD0EE
:100F300029B17047436843F04003436070474368FA
:100F400043F0800343607047436843F020034360ED
:100F5000704700BF012903D002290BD029B1704787
:100F6000436823F0400343607047436823F08003E5
:100F700043607047436823F020034360704700BF1D
:100F800083684068062909D8DFE801F00414191EB7
:100F900023280F0003F0020300F080001BB100388B
:100FA00018BF012070471846704703F4807300F0A3
:100FB0002000F3E703F0010300F04000EEE703F048
:100FC000400300F02000E9E703F0200300F02000D8
:100FD000E4E703F0100300F02000DFE703F008036C
:100FE00000F02000DAE700BF1C4B0A88984210B4DA
:100FF000826207D020F44063B3F1804F02D0184BD7
:1010000098420BD103684A8823F070030360046898
:101010008B8822430260026813430360114B8A6885
:10102000C262984210D003F5806398420CD00268E7
:10103000CB8822F4407202600468084A234390423D
:10104000036007D10B7B0363436910BC43F00103CA
:1010500043617047024B9842F4D0F5E7002C014001
:101060000034014000100040036823F001030360D6
:10107000704700BFC3680069084003D00B4214BF2B
:1010800001200020704700BFC9430161704700BFC5
:1010900038B5124B984204460D4619D010D9104B62
:1010A000984215D003F56843984215D10D4B0320A3
:1010B000984700EB5503B3FBF5F189B2A16038BD49
:1010C000A3F50063984203D003F58063984203D1EF
:1010D000044B02209847ECE70020EAE7004C004070
:1010E00000500040690D0008C36843F40053C3601A
:1010F000704700BFC36823F40053C360704700BF4C
:10110000C36823F00803C360C36801F008011943F2
:10111000C1607047C36823F00403C360C36801F073
:1011200004011943C16070474068C0F3080070476C
:10113000436923F480734361436901F48071194367
:1011400041617047436923F400734361436901F4CB
:101150000071194341617047436923F040034361C3
:10116000436901F040011943416170478A0910B495
:1011700001F01F011458012303FA01F1214311501A
:1011800010BC7047C1F389138A0D30B41D58145830
:10119000C1F30443012202FA03F0204007D001F01A
:1011A0001F0102FA01F1294214BF1046002030BC91
:1011B000704700BF144B154A1B68934210B519D0F5
:1011C000134A934212D0134A934218D0124A9342C0
:1011D000124B0ABF4FF4000018681860104B984774
:1011E000BDE810400F4B40F20C5018470B4B00204D
:1011F0001860F3E7094B4FF480001860EEE7074BE7
:101200004FF440001860E9E700000020006CDC02A9
:1012100000A24A0400D8B805000E2707E40C0020FD
:10122000390D0008910C0008024B002202214320D6
:10123000184700BFD90B000810B5154C23680133BF
:1012400023606368636063687C2B05D963687D3BBA
:101250006360236801332360A368B3F5F97F08D87E
:10126000A3680133A3600B4B9847A3690133A361C3
:1012700010BD0023A360E36801225340E3602261B4
:10128000E368002BEFD1636913446361EBE700BFB0
:10129000EC0C0020B10200080A4B4FF0E02210B421
:1012A0009C69936952694FF47A7C01320CFB0411FA
:1012B000D31A0CFB03F3B3FBF2F30B4410BC036033
:1012C000704700BFEC0C0020024B1B681944016002
:1012D000704700BFEC0C00200F4B10491B68104AF0
:1012E000A1FB03139B09013B00210120B3F1807F87
:1012F00091611160D16010615161516091600AD2B9
:101300004FF0E022074853614FF0F00C072380F8BC
:1013100023C091611361704700000020D34D62101B
:10132000EC0C002000ED00E00022024B1146FF20F3
:10133000184700BFD90B0008006800280BDB074BDB
:101340001B6890EA030F04D498428CBF0020012050
:101350007047002070470120704700BFEC0C002050
:101360000368002B1CDB0F494FF0E02210B48C699E
:101370009069526901324FF47A71101A01FB00F042
:10138000B0FBF2F001FB040093EA000F05D48342A6
:101390008CBF0020012010BC7047002010BC70479B
:1013A00001207047EC0C0020034A136818441368AE
:1013B0009842FCD8704700BFEC0C002030B54FF0CD
:1013C000E02C104CA569DCF81830DCF814204FF440
:1013D0007A710132D31A01FB050001FB03FEBEFB4B
:1013E000F2FE8644A069DCF81830DCF814200132E3
:1013F000D31A01FB03F3B3FBF2F301FB00339E4569
:10140000F0D830BDEC0C002000207047044B1A7857
:101410001AB901221A70597058600020704700BF35
:10142000080D002038B58221034D0446A84702214B
:101430002046A847002038BD7915000870B5094E30
:10144000094D044606F11201A84706F1190120468C
:10145000A847064A402302212046054CA047002009
:1014600070BD00BF1483000809150008100D00208E
:10147000A915000810B5497801290AD002290FD012
:1014800099B90B4AC0F8D8206722C0F8E420084672
:1014900010BD084AC0F8D820C0F8E4100021F6E7D3
:1014A000054A064C4023A047F8E70221EFE700BFBA
:1014B0003483000804000020100D0020A915000846
:1014C000014B9864704700BF080D002038B50C4CE4
:1014D0002378A3B162786368182101FB023304F119
:1014E0000800A26C93F84812904740B1402360680E
:1014F000044D04F108020221A8470023237038BDDF
:10150000080D0020A915000870B591F902308D78FA
:101510008E88002B0A464FF018031CDA05F07F0472
:1015200003FB040103FB0403D03193F8D04044F0E3
:10153000800483F8D0400B788E8065F303030B7032
:10154000D3780B4A03F0030352F823304B70094B56
:101550009847002070BD03FB050103FB050301F55F
:101560000E7193F838426FF3C71483F83842E2E7FC
:10157000D88400084523000808B511F0800F18BF73
:1015800001F07F014FF0180316BF03FB010103FBBD
:101590000101D031034B08BF01F50E7198470020BF
:1015A00008BD00BFC1230008F8B501F07F0118276E
:1015B00007FB01050026C5E99023C5F84862034BE7
:1015C00005F50E7198473046F8BD00BFC1240008EC
:1015D000F8B501F07F01182707FB01050026294611
:1015E000C5E93623C5F8E060024BD0319847304654
:1015F000F8BD00BF0124000811F0800F18BF01F0F2
:101600007F0108B54FF0180315BF03FB010103FB71
:101610000101D03101F50E7101238B70014B984708
:10162000002008BD1725000811F0800F18BF01F039
:101630007F0110B54FF0180315BF03FB010103FB39
:101640000101D03101F50E710024024B8C709847D6
:10165000204610BD492500084269536823F0020363
:1016600053600320004B1847A913000842695368D0
:1016700043F0020353600320004B1847A9130008EE
:1016800073B5C0E9EC23D36804460E4604F1100597
:10169000D868144B984732462946134B134E2046C0
:1016A00098472269936823F00103936094E80F0040
:1016B0000095B04720460E4B9847002128460D4B19
:1016C00098470D4B204698472269936843F00103E1
:1016D00093602046094B9847012384F8CE3002B02E
:1016E00070BD00BF251B0008D11F0008D5200008D1
:1016F0006D1600080F220008652200085916000820
:1017000001207047D0F8B033186803781380704711
:10171000D0F8B0335868438813807047D0F8B0339E
:10172000DB6853F8210003781380704710B5034637
:1017300008788C8800F003000128E2B21FD002284C
:1017400024D0002838D193F8CE20022A03D093F871
:10175000CE20032A30D193F8A223184932B193F84E
:10176000A023003A18BF012242F002020A70134A75
:10177000C3F8D8200222C3F8E420002005E093F843
:10178000CE10032901D1022AF1D910BD93F8CE1051
:10179000032911D114F0800F4FF018001ABF02F086
:1017A0007F0200FB023200FB0232044914BF92F8B0
:1017B000D22092F83A22D9E70120E6E7540D002022
:1017C00070B50B7813F0030305460E4603D0012BCA
:1017D00045D0012428E049880B0A032B1C46C9B2D6
:1017E00037D00AD8012B13D0022BF2D1214B00F1B4
:1017F000E4029847C5F8D800EBE70F2BE9D1D0F801
:10180000B0339B689A78A0F8E420C0F8D830E0E7BD
:10181000194B00F1E4029847C5F8D800F388402B33
:10182000D7D10823C5F8E430D5F8E4307BB1F2888D
:101830006AB1934219D2B5F8D440A34217D3B3FB8F
:10184000F4F004FB103494B9012385F8AD3320463D
:1018500070BDEE29BDD8094B00F1E402C9E7D0F80C
:10186000B433DB6898470446DEE7C5F8E42000247B
:10187000EDE700BF11170008051700081D17000845
:1018800090F8CE30022BDAB203D0032A0ED001201A
:10189000704790F8CC30002BF9D100F1CC03C0F8A0
:1018A000D8300123C0F8E4300020704790F8CC30E5
:1018B000002BECD0F1E7000070B54D881E4EEDB264
:1018C000012D0446B57006D890F8CE30022BDAB25E
:1018D00003D0032A0FD0012519E0C5B1D0F8B433E5
:1018E00001215B689847B37884F8CC30032384F8EF
:1018F000CE3000250BE065B9D0F8B43329469B689B
:101900009847B37884F8CC30022384F8CE30284648
:1019100070BD90F8CC30012BEBD0D0F8B43301215E
:101920009B689847B178D4F8B43384F8CC105B68DE
:1019300020469847DDE700BF540D002010B58B8886
:1019400002460BB1012010BDCC88002CFAD14B8887
:1019500003F07F0092F8CE3082F8CD00032BF1D057
:101960005369196821F4FE611960196841EA001190
:10197000196020B1022382F8CE302046E3E701232C
:1019800082F8CE30DFE790F8CE20032A03460ED14E
:101990008A88D2B2022A4FF0010009D8D3F8B423C2
:1019A000C3F8E4000244C3F8D820002070470120A7
:1019B000704710B590F8CE40032C0AD18A88D2B275
:1019C000022A06D8D0F8B4331B6923B19847002007
:1019D00010BD0120FCE71846FAE7000010B50B78AF
:1019E00013F00303024603D0022B10D001230CE0B6
:1019F00090F8CE00022803D092F8CE000328F5D14B
:101A00004988012901D182F8A213184610BD90F827
:101A1000CE30032BEAD14C8834B98B88D9B213F07D
:101A20007F03F2D0014B98470023EEE7F915000839
:101A300070B50B7813F0030304460D4603D0022B58
:101A400011D001230DE090F8CE20022A03D090F8A7
:101A5000CE20032AF5D16A88012AF2D1002284F827
:101A6000A223184670BD90F8CE30032BE9D14E88E2
:101A700066B98B88D9B213F07F03F2D0044B984734
:101A8000D4F8B4332946DB68204698470023E8E7BA
:101A90002916000800207047002070474A78024B42
:101AA00053F82230184700BFE884000810B490F8BB
:101AB000CE40032C08D18A88D2B2022A04D8D0F8AA
:101AC000B43310BCDB681847012010BC70470020FD
:101AD0007047000070B580210446054DA847204698
:101AE0000021A8472046034BBDE87040184700BFBF
:101AF000F915000899250008002370B54D1C1E46F5
:101B0000DCB2944200D370BD040FB0F1204F34BF5B
:101B10003034373401F81340000105F81360013305
:101B2000EEE700000378062B70B5044614D00E4B88
:101B3000D3F8E807D3F8F027801814D0D3F8EC676F
:101B40000A4DA11C0822A84704F1120130462B4679
:101B50000422BDE870401847054BD3F8003113B19B
:101B600043801B0C838070BD00F0FF1FF91A000832
:101B70000020024082B0C3798DF8053043699B682C
:101B800003F001038DF8063090F8CE30DA1E534290
:101B900053418DF8073090F8CE30DBB280F8CF306B
:101BA000042380F8CE309DF805305BB19DF80630F7
:101BB00043B19DF807302BB1D0F8C820136843F02B
:101BC0000303136003694FF400625A6102B0704767
:101BD00043699A68596821F480715960596841F4E1
:101BE000807159600369D96821F47051D960C2F3DA
:101BF000410209498A5C032A15BF022242704270E1
:101C0000DA6816BFDA6842F4105242F4A052DA6081
:101C10004FF400525A6170471C85000842692DE953
:101C2000F8435368044623F0010353600021264B18
:101C300010309847E07804F11C020023FF21834212
:101C40003AD36369DFF88490214E4FF0FF329A61F6
:101C50004FF00112DA61012509225A611D611A68EB
:101C600022F4FE621A6020461A4B984723694FF40B
:101C700080525A6104F50E73184618220021C84795
:101C80004FF04008014604F1D007A4F83C822046FA
:101C9000B047182200213846C84794F8D030A4F83D
:101CA000D48043F0800384F8D03039462046B047D2
:101CB00084F8CE50BDE8F88352F8045BA9605569FA
:101CC0000133A960BBE700BF8D2100085D7E0008DD
:101CD000452300089925000873B500230193036983
:101CE0009A6922F010029A611B6A0193019C019E7D
:101CF000019A019BC3F34343022B054604F00F04F2
:101D0000C6F30A1608D0062B1CD02A69936943F043
:101D10001003936102B070BD002EF6D0182303FBB0
:101D200004043246134BD4F8401210309847D4F8CC
:101D300040323344C4F84032D4F848323344C4F813
:101D40004832E2E7182303FB0404C2F3C13294F8DB
:101D5000383203F00F031343D7D1082ED5D1054BEA
:101D600000F56971324610309847D4F8483208338C
:101D7000E5E700BF732100082DE9F04F4269936940
:101D8000D26903EA020885B0044608F03F084FF024
:101D900000095FFA89FBB8F1000F02D105B0BDE878
:101DA000F08F18F0010F3ED0344B5946204698472B
:101DB0000390039BDA0708D504EB8B030121DB6951
:101DC000204699602E4B59469847039B1B062AD5FF
:101DD000182303FB0BF3E1180093D1E93753EB1AF7
:101DE000B1F8D4509D4228BF1D46012303FA0BF3DE
:101DF0000335DB430BF1060AAD08019304EB8A0AB5
:101E0000DAF804309B699BB2AB4205D3009BE6181D
:101E1000D6E937739F420BD85FFA89F304EB83034B
:101E20008022DB699A604FEA580809F10109B0E79E
:101E3000FF1AB6F8D430D6F8D810DFF848C09F4261
:101E400028BF1F46BBB25A4604F11000E047D6F83F
:101E5000D8303B44C6F8D830D6F8E030FD1C1F44DB
:101E6000D6F8DC30C6F8E0709F424FEA9505C7D13E
:101E70006169019A4B6B13404B63C1E77B250008F6
:101E80005D2700085521000843692DE9F3479C6947
:101E9000DB69174FDFF85C901C400546C4F305442E
:101EA0004FF0000A4FF008085FFA8AF114B902B047
:101EB000BDE8F087E00716D505EB81066A69706B0F
:101EC0008368526913400193019BDA0703D501230C
:101ED00083602846C847019B1B0704D52846B8479E
:101EE000736BC3F8088064080AF1010ADCE700BFDD
:101EF00071260008F526000838B503695A69D2072B
:101F000004464CD45D699B691D4048D02B0301D524
:101F1000234B9847680302D5224B20469847290552
:101F200002D5214B20469847002D06DA032384F87A
:101F3000CE3023694FF000425A612A0708D5D4F801
:101F4000B4335B6A0BB120469847236908225A6173
:101F5000EB0602D5154B20469847E80402D5144BF2
:101F600020469847A90402D5124B20469847EA021A
:101F700009D5D4F8B4339B6A0BB12046984723693E
:101F80004FF480125A61AB0209D5D4F8B433DB6A3E
:101F90000BB12046984723694FF400125A6138BDAF
:101FA000891E0008791D0008751B0008D91C00084F
:101FB0001D1C0008D11B0008036943F001030361E5
:101FC0000369DB07FCD4014B03201847BD1300084D
:101FD00070B50B4600240221012A04714170027081
:101FE00061D14FF0A0454FF4816646804171C280B7
:101FF000C560BC222D4E21461846B0472C4A42608F
:10200000A2F5806282604032826702F51C62C0F8ED
:10201000B820A2F5A062C26002F500724262A2F589
:10202000F072026102F500728262A2F5F072426102
:1020300002F50072C262A2F5F072826102F50072CE
:102040000263A2F5CC62C26302F53062C267A2F5F8
:102050002E62026402F5D752C0F88020A2F5D65253
:10206000426402F52B52C0F88420124A8264124A5C
:10207000C0F88820A2F56A52C2644FF05022C0F81E
:102080008C200E4A02650E4AC0F890200D4A426527
:102090000D4AC0F894200D4A82650D4A0560C0F8CB
:1020A0009820204670BD0120FCE700BF5D7E00083F
:1020B000000800506005005000400050A00500508E
:1020C00000600050C005005000700050E005005056
:1020D0000080005030B585B004AC04E90F009DF8D5
:1020E0000530089D9DF806402868184A012B16D136
:1020F000836B23F4803383631CB1836B43F48013BD
:102100008363C36823F4001323F04003C360C368F0
:1021100023F48013C3609047002005B030BDC3682E
:1021200043F04003C36090472B689A6B42F45022FF
:102130009A639A6B42F400129A631CB19A6B42F450
:1021400080129A63024B14209847E5E7B91F0008F4
:10215000A913000800EB820003339B08C26F01EB58
:102160008303994201D10020704751F8040B10609D
:10217000F7E703329208C36F01EB8202914201D16B
:1021800008467047186841F8040BF7E703688901AF
:1021900041F0200110B519611C6914F02004FBD135
:1021A000024B03209847204610BD00BFBD13000816
:1021B0000368102210B51A611C6914F01004FBD1D9
:1021C000024B03209847204610BD00BFBD130008F6
:1021D000006870B51204446A11B92243826270BD6E
:1021E000836A4D1E04EB134400235E1CDBB29D4248
:1021F00005D83F3100EB810022434260EFE74033D6
:1022000000EB83035B6804EB13443346EDE703689C
:10221000DA6822F0C042DA6021B9DA6842F080421E
:10222000DA6070470129FCD1DA6842F00052F7E722
:1022300003694FF0FF325A606FF080425A61074ADB
:102240009A6102791AB99A6942F010029A61996901
:10225000034A0A439A610020704700BF00080080CB
:1022600008303C00F8B5D0F8C83000211960436947
:102270001A6822F4C0521A601A681A601A68054671
:1022800022F003021A6015F8107B012F044616D1C4
:102290001A68284E42F003021A60036980225A62CB
:1022A00028462022B047202239462846B04720221F
:1022B00002212846B047202203212846B04710219A
:1022C0001D4B284698471D4B2846984761690023B7
:1022D0004FF0FF320B614B618A61CB6194F803C010
:1022E00004F11C051846FF27DAB2944508D80B699B
:1022F00043F010030B612046114B98470020F8BDB6
:1023000055F8042B1668002EB7BF1668106046F00B
:1023100090461660106197606A691668002EB7BF14
:102320001668106046F090461660013310619760A1
:10233000DAE700BFD12100088D210008B121000893
:10234000312200080B7891F9002003F00F03F0B55B
:10235000446900EB8300002AB4BFC269426BA668DF
:10236000A2BF012503F1100005FA00F01568BCBFFB
:10237000012098402D0416D417680F4D3D4015607C
:10238000B3B90E4D176806F00606AD5D3D43156006
:10239000497815689B0543EA81432B4343F08053FA
:1023A00043F400431360E3691843E0610020F0BD8B
:1023B00016688D883543EAE700F833FC208500086D
:1023C00091F900200B78002A03F00F034FF001026F
:1023D000ABBF03F110019A4000EB830300EB8303D2
:1023E000AABF8A40D969596B0B6823F400430B607C
:1023F0004169CB6923EA0202CA61002070470000EC
:102400000A7802F00F0273B500EB8203DC692368DF
:10241000009323690193019B03F060430193CB6810
:102420004BBB019B43F400230193019B23614D7837
:10243000012D0AD143699B6813F4807F009B14BF70
:1024400043F0805343F000530093009B43F0044358
:102450000093009B2360037953B9012DCB6827D0EB
:1024600033B141690123486B03FA02F202434A6324
:10247000002002B070BD8E8892B9B34294BFCB6089
:10248000CE60019B43F400230193019BCD682B4355
:1024900001934B78012BC8D1019B43F00053C3E754
:1024A000019D013B3344B3FBF6F345EAC343EBE73D
:1024B0008968024C9BB21030A047D9E7552100082B
:1024C00070B50E78CA688D8806F00F0600EB86009E
:1024D000446B2068236903F0604302B17EB92B434B
:1024E00043F4002323614B78012B03D1CB787BB1DC
:1024F00040F0005040F004402060002070BD013AE0
:102500002A44B2FBF5F243EAC2436A431343E9E7C4
:1025100040F08050EEE70B7891F9002003F00F03B4
:10252000002A00EB83000DDAC3691A68002A03DA77
:102530001A6842F080421A601A6842F400121A6067
:1025400000207047436BF7E70B7891F9002003F008
:102550000F0300EB8300002AB4BFC369436B1A6802
:1025600022F400121A604A78023A012A9EBF1A68C1
:1025700042F080521A6000207047426910B500EBAB
:1025800081001469536BC269CB40DB019068DBB2F8
:102590002343184010BD0000436B014A1A61704785
:1025A00018000860C3794BB143699B68DB0741BFE2
:1025B000D0F8C820136823F00303136070470000AD
:1025C00038B50446D0F8E430D0F8D820074D0021C3
:1025D000A847B4F8D420D4F8E43093428CBF012348
:1025E000022384F8AC33002038BD00BFD1150008A9
:1025F00038B50446D0F84C32D0F84022074D0021BF
:10260000A847B4F83C22D4F84C3293428CBF032341
:10261000042384F8AC33002038BD00BFA91500089E
:1026200038B5052380F8AC3300231A461946044612
:10263000034DA8472046034B9847002038BD00BFF4
:10264000D11500089925000838B5062380F8AC3369
:1026500000231A4619460446034DA8472046034B5B
:102660009847002038BD00BFA9150008992500082B
:1026700037B50446D0E9E9016D4685E803009DF8C9
:10268000003003F06003202B10D0402B12D0F3B9A0
:10269000114B294620469847C8B9BDF806306BB99A
:1026A0000E4B20469847002003B030BD0C4B294606
:1026B0002046F0E70B4B29462046ECE79DF9003019
:1026C000002B204601DA084BECE7084BEAE7084B01
:1026D000294620469847E6E79D1A0008212600086B
:1026E000AD1A0008CF1A0008C1250008F12500081E
:1026F000D51A000810B5044601BB90F8AC33032B83
:1027000003D0042B0BD0002010BDD0F84C32B0F811
:102710003C229B1AC0F84C320E4B9847F3E790F8D6
:10272000CE30032B04D1D0F8B4339B6903B1984762
:102730000023C4F84C322046074BEEE7D0F8B43300
:102740001B6A002BDFD090F8CE20032ADBD19847FC
:10275000D9E700BFF12500082126000870B504461E
:102760000D4651BB90F8AC33012B03D0022B0BD09C
:10277000002070BDD0F8E430B0F8D4209B1AC0F827
:10278000E430134B9847F3E790F8AD3333B1114E73
:102790000B460A46B04784F8AD53E9E790F8CE30CF
:1027A000032B04D1D0F8B4335B6903B198470023FD
:1027B000C4F8E4302046084BE4E790F8CE30032B11
:1027C000D6D1D0F8B433DB69002BD1D09847CFE70E
:1027D000C1250008D11500084926000808B50121C7
:1027E000014B9847012008BDE976000810B5037831
:1027F00004463BB1022B09D02046074B01219847E4
:10280000012010BD054B98470028F5D0044B984790
:10281000044B9847F0E700BFE9760008354B000805
:1028200039550008315B00080378012B01D00120E5
:10283000704710B54278012A04460DD832B1094BD1
:10284000984718B1084B9847084B9847084B002108
:1028500020469847012010BD064C054A63710021AF
:102860009047F7E7354B000839550008315B000801
:10287000E9760008580D002010B50378022B0446B5
:1028800017D0042B04D01A4B01219847012010BD0A
:10289000184B1948194900224FF0030C83F802C065
:1028A0001A719A7188472046114B012198470120DF
:1028B00010BD134B98470F4B80B10120002203211C
:1028C00018719A710F480D4A997090470E4B9847AE
:1028D0002046074B01219847012010BD012203210A
:1028E00018719A710948054A99709047EEE700BF40
:1028F000E9760008580D0020ED270008DD76000875
:102900006D7100082928000875780008DD27000887
:1029100070B51D4B1D4C1E4D98471E4B98471E4BC6
:1029200098471E4B98474FF4E1301D4B98471D4B7D
:1029300098471D4B98471D4B984704F108061C4BC0
:1029400098471C4B304698471B494FF4805204F17E
:102950001400A8474FF4805218493046A847C021B8
:10296000174B4FF410709847164B4FF44070984730
:102970001548002301214FF480720380A17022804A
:102980002371A37170BD00BFAD710008580D002008
:10299000A5410008656E00084D4B0008A16A0008BB
:1029A000CD6200088D4100083D76000855620008A0
:1029B000995B000881410008941D0020940D0020BF
:1029C00029540008C50B0008ACBE002084460A4606
:1029D0000148024B614618476C0D00205143000826
:1029E0000148024B184700BF600D0020A9420008B3
:1029F0002DE9F04F984E737885B0002B2ED0974B71
:102A00009847974B9847B378032B00F28586DFE809
:102A100003F00702070E934B9847002840F0EE8022
:102A2000914B9847914B05B0BDE8F04F1847904B3C
:102A300098470028F4D020238E4C8DF808300122CE
:102A400002A98D48A0470A238DF808308A4802A9B8
:102A50000122A0470023A6F80130E1E7B2793379DB
:102A6000134300F0BC803278002A00F0E380012A92
:102A700000F0AF8000233370804B9847804B98471D
:102A80003379022B00F0C281032B00F08981012BE6
:102A900000F01C81B379012BB1D17A4F754DDFF86D
:102AA000D89107F11D0802AC17F8013F8DF80830E6
:102AB0007F2B4FF0010200F0B98021464846A8471D
:102AC0004745F1D10A236C486F4F8DF80830012239
:102AD0002146A847DFF8A09107F11D0817F8013F2C
:102AE0008DF808307F2B4FF0010200F09B802146CB
:102AF0004846A847B845F1D10A235F48DFF88C81E2
:102B00008DF8083001222146A847DFF86C9147462E
:102B100017F8013B8DF808307F2B4FF001027CD075
:102B200021464846A8475A4B9F42F1D1DFF864A19D
:102B3000DFF86491594FD04701462046C847C0F19D
:102B40000302211892B24C48A84743230122214690
:102B500049488DF80830A8470A2347488DF80830BF
:102B600001222146A847444B07F1160B17F8010F25
:102B70008DF808007F284FF001024BD018462146FF
:102B8000A847BB453C4BF1D10A233B488DF80830A0
:102B900001222146A847424FDFF8DCB017F8013F79
:102BA0008DF808307F2B4FF001022FD02146584678
:102BB000A8473C4BBB42F1D13B4B1B785B09042B34
:102BC00000F26681DFE813F052011A04F4030704EF
:102BD000E103364B984700283FF44EAF4AE7344BA9
:102BE00002A906F11400984702283FF43CAF9DF873
:102BF0000810304B06F10800984734E702222E4BAC
:102C0000B27098472D482E4B984709E7254BBB4299
:102C1000C4D1D1E7BB45A9D1B6E71D4B9F427FF494
:102C200077AF83E7B8457FF459AF65E747457FF451
:102C30003BAF47E71048234B02A9984702283FF4CF
:102C40001BAF9DF808001F2840F287847F283FF4BF
:102C500013AF1D4B98470FE7580D0020B1630008D4
:102C600005770008215E0008496C0008396F0008EC
:102C70007D71000851430008600D0020E5720008D6
:102C8000814A00089F9E0008BF9E0008E09E000841
:102C9000ED9E0008894F000869750008EF9E000846
:102CA000079F00081C9F0008ACBE002005400008DC
:102CB00029420008BD4100088D71000879280008EC
:102CC000DD760008D1420008515500085D4F5E4D89
:102CD000DFF8789107F1100802AC17F8013F8DF882
:102CE00008307F2B4FF0010257D021464846A847B5
:102CF0004745F2D10A235548554F8DF80830012237
:102D00002146A847DFF8449107F11E0817F8013F54
:102D10008DF808307F2B4FF001023BD0214648460A
:102D2000A8474745F2D10A2348484A4F8DF8083052
:102D300001222146A847DFF8149107F11E0817F871
:102D4000013F8DF808307F2B4FF001021FD0214644
:102D50004846A8474745F2D10A27012221463B4869
:102D60008DF80870A8470122214638488DF8087070
:102D7000A8470022384B86F821209847374BA3FB01
:102D800000235B09022286F82030327182E6474533
:102D9000D5D1E1E74745B9D1C5E747459DD1A9E779
:102DA00096F82030002B00F054840027264DDFF8E1
:102DB0009C9002AC3B464FF02E0806EB43030122E9
:102DC0009B8CA3F1200CBCF15E0F2146484612D922
:102DD0008DF808800137A84796F82020FBB29A4268
:102DE000EBD802220A2332712146012217488DF8BE
:102DF0000830A8474EE601228DF808300137A84771
:102E000096F82020FBB29A42D7D8EAE70F48144B35
:102E1000984714287FF63EAE1248134B0DF1070178
:102E20009847022800F09D8396F8213096F82020DC
:102E30009A4200F2E2830022032386F821203371B4
:102E400028E600BF279E000851430008600D0020BF
:102E50003B9E00085B9E000845550008ABAAAAAA45
:102E6000ED4500086C0D002029420008BE4FDFF838
:102E7000FCB217F8013F8DF808307F2B4FF00102AC
:102E800000F0578321465846A847B94BBB42F0D1C2
:102E9000B84FDFF8D8B217F8013F8DF808307F2B14
:102EA0004FF0010200F0598221465846A847B24B24
:102EB000BB42F0D10A23AD488DF8083001222146EB
:102EC000A847AE4FDFF8A4B217F8013F8DF80830DD
:102ED0007F2B4FF0010200F03B8221465846A84765
:102EE000A74BBB42F0D10A23A0488DF8083001223D
:102EF0002146A847A34FDFF874B217F8013F8DF8B9
:102F000008307F2B4FF0010200F01D822146584609
:102F1000A8479D4BBB42F0D19C4B1B78DA0700F1D0
:102F200021824E232146012290488DF80830A8477F
:102F30006F238E488DF8083001222146A8470A23C6
:102F40008A488DF8083001222146A847904FDFF8C3
:102F50001CB217F8013F8DF808307F2B4FF00102AB
:102F600000F0928221465846A8478A4B9F42F0D1F2
:102F7000864B1B789B0700F1C1824E23214601221C
:102F80007A488DF80830A8476F2378488DF80830C4
:102F900001222146A8470A2374488DF808300122EF
:102FA0002146A8477C4FDFF8C4B117F8013F8DF8E0
:102FB00008307F2B4FF0010200F05D822146584619
:102FC000A847764BBB42F0D1754B764FDFF89CB1EA
:102FD0009847754B014620469847C0F105022118D5
:102FE00092B26248A84717F8013B8DF808307F2B52
:102FF0004FF0010200F03A8221465846A8476B4B39
:10300000BB42F0D10A2359488DF8083001222146ED
:10301000A847564F18F8013B8DF808307F2B4FF02A
:10302000010200F01E8221463846A847604B434506
:10303000F0D1D04701462046C847C0F1030221180D
:1030400092B24A485B4FDFF82491A84743230122FC
:10305000214646488DF80830A8470A2343488DF892
:10306000083001222146A84707F1130817F8013F4D
:103070008DF808307F2B4FF0010200F0E2812146ED
:103080004846A847B845F1D10A2338484A4F8DF839
:10309000083001222146A847DFF8D09007F11B082D
:1030A00017F8013F8DF808307F2B4FF0010200F038
:1030B000C48121464846A847B845F1D10A232B4888
:1030C0003E4F8DF8083001222146A847DFF89C903A
:1030D00007F1300817F8013F8DF808307F2B4FF0CB
:1030E000010200F0A68121464846A847B845F1D123
:1030F0000A231E48324F8DF8083001222146A84786
:10310000DFF8689007F1190817F8013F8DF80830CB
:103110007F2B4FF0010200F0888121464846A847E6
:10312000B845F1D10A270122214610488DF80870D0
:10313000A8470E488DF8087001222146214FDFF87C
:103140002C90A84707F10B0817F8013B8DF80830C1
:103150007F2B4FF0010200F07C8121464846A847B2
:10316000B845F1D130E000BF1F9F0008600D00207E
:10317000269F0008479F00084F9F0008539F0008A4
:10318000639F0008679F0008759F0008ACBE002081
:103190007B9F0008899F00088B9F0008999F00086B
:1031A0007D4F00089C9F0008C5740008A09F000880
:1031B000ED9E0008A39F0008B79F0008D39F00085A
:1031C00007A0000824A000080A23B448B44F8DF8D3
:1031D000083001222146A847DFF8C09207F12308F2
:1031E00017F8013F8DF808307F2B4FF0010200F0F7
:1031F0002C8121464846A8474745F1D10A23A748D4
:10320000A84F8DF8083001222146A847DFF88C929C
:1032100007F12C0817F8013F8DF808307F2B4FF08D
:10322000010200F01A8121464846A847B845F1D16D
:103230000A270122214699488DF80870A847974827
:103240008DF8087001222146974FDFF85092A84769
:1032500007F1110817F8013F8DF808307F2B4FF068
:10326000010200F0DE8021464846A847B845F1D16A
:103270000A238A488DF8083001222146A847DFF842
:103280001C8220238DF80830212701222146404648
:10329000A8477B1C8DF80870DFB2802FF5D10A2378
:1032A0007E48824F8DF8083001222146A847DFF87A
:1032B000EC9107F1200817F8013F8DF808307F2BBB
:1032C0004FF0010200F0DC8021464846A847B8458F
:1032D000F1D10A270122214670488DF80870A847CD
:1032E000012221466D488DF80870A8470122214629
:1032F0006A488DF80870A8470122214667488DF872
:103300000870A8470122214664488DF80870A84734
:103310001D230122214661488DF80830A847562315
:10332000012221465D488DF808300027A847012278
:1033300021465A488DF80870A8475D485D4B98476C
:10334000B771FFF75CBB5C4BBB427FF4D6ADE3E5E6
:103350005A4BBB427FF4B8ADC5E5594BBB427FF435
:103360009AADA7E5574FDFF834B117F8013B8DF858
:1033700008307F2B4FF0010200F08B802146584629
:10338000A847514BBB42F0D1D9E5504FDFF80CB103
:1033900017F8013B8DF808307F2B4FF0010200F049
:1033A000D28021465846A847494BBB42F0D16FE531
:1033B000484FDFF8E8B017F8013B8DF808307F2B55
:1033C0004FF0010200F0BA8021465846A847424B10
:1033D000BB42F0D15CE5414FDFF8C0B017F8013BCC
:1033E0008DF808307F2B4FF0010200F0B1802146AC
:1033F0005846A8473A4BBB42F0D149E5394FDFF870
:103400009CB017F8013B8DF808307F2B4FF001027C
:1034100000F08A8021465846A847334B9F42F0D19E
:1034200036E5B8457FF416AF22E7B8457FF46CAEB9
:1034300078E6B8457FF44EAE5AE6B8457FF430AE34
:103440003CE6B8457FF412AE1EE647457FF4C8AEB1
:10345000D4E6B8457FF478AEB6E6B8457FF4DAAE88
:10346000E6E6224B43457FF4D5ADE2E5204BBB4277
:103470007FF4B9ADC6E51F4BBB427FF496ADA3E523
:10348000B8457FF418AF24E71B4B9F427FF461AD32
:103490006EE50D4BBB427FF468AF50E5600D002038
:1034A0002FA0000853A0000883A000087B9E0008FE
:1034B000ED270008DD760008759F0008639F00086F
:1034C0004F9F0008789F00087B9F0008409F0008DE
:1034D000459F0008309F0008369F0008389F00086D
:1034E0003E9F0008289F00082E9F0008ED9E0008C0
:1034F000A09F0008999F0008899F0008884FDFF867
:1035000024B217F8013B8DF808307F2B4FF00102F1
:1035100006D021465846A847834BBB42F1D13AE535
:10352000814BBB42EDD136E5804B9F427FF469AFC2
:10353000AEE47F4BBB427FF49CACA9E47D4BBB4225
:103540007FF439AFA4E47C4BBB427FF421AF9FE40E
:103550007A4BBB427FF442AF9AE401233370FFF70A
:103560008BBA7379002B3FF495AA96F8217000234B
:103570007371002F00F0CA80714DDFF8A89102AC82
:103580004FF0200809E001222146484601378DF816
:103590000880A84717F0FF0703D096F82030BB42F9
:1035A000F1D896F821300133DBB286F82130002BB8
:1035B00053D0DFF8709100274FF02E080BE08DF804
:1035C0000880A847013796F82130013BDBB286F826
:1035D0002130002B41D0FBB206EB430301229B8C30
:1035E000A3F1200CBCF15E0F21464846E7D801222A
:1035F0008DF808300137A847E5E79DF80720504DC2
:10360000110906EB4300013386F8213001F1300344
:10361000392B828402F00F028CBF37318DF80830CD
:1036200002F1300388BF8DF80810392B88BF37327C
:103630004FF020008DF80A0088BF8DF8092002A9FC
:103640004FF00302374898BF8DF80930A847FFF7BD
:1036500021BA3B4D02ACFFF7C4BB00220A2386F817
:1036600021203048374F8DF8083001222146A847E5
:10367000DFF8B09007F1200817F8013F8DF8083007
:103680007F2B4FF001023ED021464846A8474745D0
:10369000F2D10A270122214622488DF80870A84756
:1036A000012221461F488DF80870A84701222146B3
:1036B0001C488DF80870A8470122214619488DF84A
:1036C0000870A8470122214616488DF80870A847BF
:1036D0001D230122214613488DF80830A8475623A0
:1036E000012221460F488DF808300027A847012203
:1036F00021460C488DF80870A8471348134B98478B
:103700003771FFF7C7B94745B6D1C2E701230C4D62
:1037100086F8213002AC4CE70023B370FFF780B984
:10372000789F0008600D00207B9F00082E9F0008F6
:10373000269F0008369F0008459F00083E9F00080E
:10374000514300087B9E0008ED270008DD76000845
:1037500008B5044B9847044B9847044B01225A7014
:1037600008BD00BF2D7200080D4F0008580D002045
:10377000014B00225A707047580D002000B583B0ED
:103780000146074B684698470146C0F10502054BC4
:10379000054892B26944984703B05DF804FB00BF46
:1037A000C574000851430008600D002000B583B0C7
:1037B0007F288DF8070005D00448054B01220DF144
:1037C0000701984703B05DF804FB00BF600D0020BF
:1037D00051430008012070470120704708B5044B91
:1037E000984700B908BD034B00229A70012008BD1C
:1037F000555B0008942D002038B52B4DAC78052C76
:1038000032D8DFE804F00C233E2D35032879274B0E
:10381000984708B10123AB700024204638BD2449E5
:10382000E868244B002298470228F5D02B79A3F1B1
:103830003002012A33D9012B31D9422B18BF012480
:10384000EBD11D4B98470223AB70E6E71B4B984723
:1038500004460028E0D11A4B98470323AB70DCE7FD
:10386000184B98470028D7D00023AB700124D4E729
:10387000154B98470028CFD005230024AB70204675
:1038800038BD0B49E868114B98470228C4D0104B4B
:1038900098470028F0D00423AB700024BDE7012234
:1038A000054BAA709847B8E7942D0020315B0008BB
:1038B000982D0020D1420008E1290008354B00086E
:1038C0006572000855740008555B0008294200081D
:1038D000FD5A000808B5024B9847012008BD00BFFB
:1038E000F154000808B5024B9847012008BD00BFFD
:1038F000895A0008084B5B7810B513F0010401D118
:10390000012010BD054B98470028FAD0044B002237
:103910009A70204610BD00BFACBE0020555B000869
:10392000942D002038B5174CA378012B07D0022B1B
:103930001BD063B10023A3700125284638BD124B6C
:10394000984708B10223A3700025284638BDE068D7
:103950000E4B211D984705460028F5D10C4B984782
:103960000028EFD00123A370E7E72579002DE1D0EF
:10397000084B984715FB00F0074B80B2984700288A
:10398000E2D0D7E7942D0020555B000829420008BB
:10399000FD5A000839550008315B000810B50B4C82
:1039A0000B4BE068211D984702280DD02079094B68
:1039B000C0F30210013098472079074B00F0070050
:1039C00001309847012010BD002010BD942D00202B
:1039D00029420008815400089154000838B5154D5B
:1039E000AB7833B1012B1DD00023AB7001242046EE
:1039F00038BD114B984704460028F7D1E8680F4BB3
:103A00002246291D9847022811D028790028EDD098
:103A10000B4B98470028E9D00A4BE86898470123E8
:103A2000AB70E4E7E868084B98470028DCD1002435
:103A3000204638BD942D0020F95E0008D1420008D0
:103A4000055F0008A9420008C15B000838B5164CA4
:103A5000A3782BB1012B21D00023A370012038BD06
:103A6000124B98470028F9D1114B9847024600287D
:103A7000F4D1E0680F4D0223211DA847022811D080
:103A800020790028EAD061790B4B98470028E5D0CF
:103A90000A4BE068022198470123A370084B98471E
:103AA0000028D9D1002038BD942D0020F95E0008EF
:103AB000FD5A0008314400084D5F0008FD4500082C
:103AC0001560000810B5094C094BE0680222211D61
:103AD0009847022808D062792079064B00EB022033
:103AE00080B29847012010BD002010BD942D002009
:103AF000B5430008215B000810B5074C074BE06890
:103B0000211D9847022804D02079054B98470120B1
:103B100010BD002010BD00BF942D002029420008D8
:103B2000B154000838B5124B984710B10124204613
:103B300038BD104D104B02460446291DE8689847D1
:103B40000228F4D02B798BB1302B0FD0012B07D06A
:103B5000312B05D0022B01D0322BE7D1022000E01F
:103B60000120064B9847064B9847DFE70020F8E70F
:103B7000FD5A0008942D0020D1420008D1540008BD
:103B8000E129000810B50E4C0E4BE0680022211D03
:103B90009847022811D0237943B1302B06D0012B4E
:103BA0004FF0010003D0312B01D010BD0020064B97
:103BB0009847064B9847012010BD002010BD00BF5C
:103BC000942D0020D1420008E1540008E1290008AA
:103BD00010B5114C114BE0680022211D98470228B6
:103BE00014D023795BB1302B09D0012B10D0312BAD
:103BF0000ED0022B0ED0322B0CD0012010BD002095
:103C0000074B9847074B9847012010BD002010BD77
:103C10000120F5E70220F3E7942D0020D1420008AF
:103C200009550008E129000810B5084C084BE06868
:103C3000211D9847022806D02079064B00F001008C
:103C40009847012010BD002010BD00BF942D00201A
:103C500029420008A154000810B5074C074BE06842
:103C6000211D9847022804D02079054B9847012050
:103C700010BD002010BD00BF942D00202942000877
:103C80002955000810B5124C124BE068211D9847C9
:103C9000022819D0237943B9E078012816D00022F0
:103CA0000D4BA2709847012010BD4FF0010CA17878
:103CB0000A4A84F803C0184690470028EFD0A3783A
:103CC00001330020A37010BD002010BD638010BD23
:103CD000942D002029420008E55A0008695A00087E
:103CE00010B5074C074BE068211D9847022804D007
:103CF0002079054B9847012010BD002010BD00BF62
:103D0000942D002029420008FD54000810B50E4CE7
:103D10000E4BE0680022211D9847022811D023791C
:103D200043B1302B06D0012B4FF0010003D0312BD3
:103D300001D010BD0020064B9847064B9847012044
:103D400010BD002010BD00BF942D0020D1420008FE
:103D500019550008E129000810B5134C134BE06811
:103D6000211D984702281CD02379002463F30704FF
:103D700004F001000E4B9847C4F3C0000D4B984768
:103D8000C4F3001001300C4BC0B29847C4F340108C
:103D900001300A4BC0B29847E009094B984701200F
:103DA00010BD002010BD00BF942D00202942000846
:103DB000095500082955000891540008815400084D
:103DC00019550008F8B51F4DAC782CB1012C11D055
:103DD0000024AC702046F8BDE8681B4E0323224641
:103DE000291DB047022818D0AB79032B21D9012413
:103DF0002046F8BDA9796E792B79E86806EB012693
:103E0000203B012BB6B298BF06EB46070F4B94BF81
:103E1000BFB237469847B84202D200242046F8BDC8
:103E200000232879AB70EA68094B31469847204651
:103E3000F8BDE868074B032198470123AB70204683
:103E4000F8BD00BF942D002031440008F145000862
:103E500001580008FD45000870B5214DAC788AB0C6
:103E600034B1012C1FD00024AC7020460AB070BDC4
:103E7000E8681C4E03232246291DB04702282BD098
:103E80002B79023B012B23D86B79AA791F2B01D800
:103E900093421DD813061BD4134BE868032198479F
:103EA0000123AB70E1E7114BEE689847104B82B2EB
:103EB00001A93046984702280ED000212A79687956
:103EC000A97001ABA9790B4DA84720460AB070BD77
:103ED000012420460AB070BD002420460AB070BDFF
:103EE000942D002031440008FD4500088962000837
:103EF000B5430008BD61000810B5084C084BE068E8
:103F0000211D9847022806D02079064B00F00100B9
:103F10009847012010BD002010BD00BF942D002047
:103F2000294200087562000810B5094C094BE06889
:103F30000222211D9847022808D062792079064B79
:103F400000EB022080B29847012010BD002010BD78
:103F5000942D0020B5430008115B000810B5074CF4
:103F6000074BE068211D9847022804D02079054BB3
:103F70009847012010BD002010BD00BF942D0020E7
:103F800029420008E95700080120704701207047C6
:103F9000012070470120704738B5154CA378012BDC
:103FA00007D0022B1BD063B10023A3700125284644
:103FB00038BD104B984708B10223A370002528464E
:103FC00038BDE0680C4B211D984705460028F5D107
:103FD0000A4B98470028EFD00123A370E7E7207928
:103FE0000028E1D0064B98470028E7D0DCE700BF67
:103FF000942D0020555B000829420008FD5A000856
:10400000315B000830B5534D2C78012C83B006D0BD
:10401000022C61D034B30124204603B030BDE868DF
:104020004D4B0DF107019847022817D069789DF88C
:104030000700AB69287400295BD00139CAB203F1CB
:10404000080101EBC20102E008338B4251D01A781B
:104050008242F9D15A686A6102232B7000242046FB
:1040600003B030BDE8683C4B0DF1070198470228CA
:10407000D1D09DF80730093B142BCCD801A252F8BF
:1040800023F000BF494100083F41000817400008E5
:10409000374100082D41000817400008174000086C
:1040A0002141000817400008174000081740000889
:1040B0001740000817400008174000081740000884
:1040C0001740000817400008174000081541000875
:1040D00009410008FD4000086B6913B198470028AA
:1040E000BCD01E4A6A610124002320462B7003B015
:1040F00030BD002320462B7003B030BD184AAA61A2
:1041000040F201232B8087E7164AAA6140F201336F
:104110002B8081E7144AAA6141F201432B807BE79F
:10412000124AAA6140F201332B8075E7104A6A6196
:1041300002232B7070E70F4B984701246CE70E4A5F
:104140006A6102232B7067E70C4A6A6102232B70B5
:1041500062E700BF942D002029420008D9370008EB
:10416000F4850008DC8500083C85000824850008EB
:10417000F5380008E14F0008DD370008E538000891
:10418000014BD860704700BF942D0020034B0449B9
:10419000596100221A809A619A707047942D00200C
:1041A000D937000810B40024234662F30F0362F3EA
:1041B0001F43C0E90043816010BC70472DE9F04106
:1041C000838882B08DF8071043B304460288E788DD
:1041D0008068561CBE42104417DBBA1A95B2DFF84D
:1041E00044802A460DF10701F61BC047B6B20DF117
:1041F0000703A06859193246C0472680A3880020CB
:10420000013BA38002B0BDE8F081064B01220DF115
:1042100007019847238801332380EFE7012002B08C
:10422000BDE8F081D17500082DE9F0410446C08851
:10423000B4F804C0A0EB0C03002B2FDD63880E46FE
:10424000C21AA168002A19441D4617DC5D1C2D1AEC
:10425000ADB25EB197B2DFF84C8030463A46C04707
:10426000A1682A46F019C047B4F804C065800CF173
:10427000010CA4F804C00020BDE8F0813EB1304636
:10428000084B012298476588E088B4F804C00135DE
:10429000B5FBF0F300FB13556580E8E70220BDE8AD
:1042A000F08100BFD1750008C2884388D11A002967
:1042B00003F10103D2BF9B1AB3FBF2F102FB1133EE
:1042C00082889BB24380531C83800020704700BFCC
:1042D0002DE9F843C6888388F31A9BB263B39A42E8
:1042E00030D243880F4681681A441944B2FBF6F372
:1042F00006FB1322B31A002B054607DDCFB1384663
:10430000124B012298470020BDE8F883BFB194B258
:10431000A6EB04081FFA88F842463846DFF82C90CE
:10432000C847C6F101022244A96807EB080092B20F
:10433000C8470020BDE8F8830220BDE8F88338466E
:10434000BDE8F8830320BDE8F88300BFD1750008FD
:10435000838893422AD32DE9F04704460388B4F8B2
:104360000690806803EB0208C8451546184417DB21
:10437000A9EB03039EB2A8EB0908DFF834A00F46AF
:1043800032461FFA88F8D047A068B9194246D0478C
:10439000A4F80080A288551B0020A580BDE8F08706
:1043A000034B984723882B442380F3E70120704771
:1043B000D17500082DE9F8431446F2B1C3880546CB
:1043C00080880E46191A91422DDBB5F802C0A96803
:1043D000A3EB0C0E72456144674611DC2EB1134B02
:1043E000304698476F88EB88A8882744B7FBF3F2DC
:1043F00003FB12776F802044A8800020BDE8F8837B
:10440000D31A63449FB266B11FFA8EF8DFF81C908E
:1044100030464246C84706EB0800A9683A46C847F6
:10442000A8886F80E7E70220BDE8F883D17500080F
:104430002DE9F0471C469BB3B0F806808588A8EBB1
:104440000505ADB2064675B3AA422FD2D3189D42D8
:1044500029DB43880F4681681A441944B2FBF8F3FC
:1044600008FB1322A8EB02039C4206DC0FB338467C
:10447000114B22469847002013E0D7B195B2A8EB24
:1044800005091FFA89F94A463846DFF82CA0A4EB43
:104490000804D0472A19B16892B207EB0900D04747
:1044A0000020BDE8F0870220BDE8F0870320BDE8CA
:1044B000F0873846BDE8F087D175000810B413FBCB
:1044C00002F2002492B20380234662F30F0362F3E8
:1044D0001F43C0E90143C16010BC70472DE9F0479C
:1044E00003890588AB4228D304468288B4F80A9031
:1044F000C06802EB0508C845104417DBA9EB0202AF
:1045000096B2A8EB0908DFF838A00F4632461FFA2A
:1045100088F8D047E068B9194246D047A4F804802B
:1045200023895D1B00202581BDE8F087044B2A46C6
:104530009847A3882B44A380F2E70120BDE8F087C9
:10454000D17500082DE9F84305881DB3B0F80AE0DD
:10455000B0F808C0AEEB0C03AB42044632DBC388B4
:104560000F46AEEB0302C168954219441E4614DCA7
:1045700047B1164B2A4638469847E688B4F80AE011
:10458000B4F808C02E44B6FBFEF30EFB1366E680BB
:10459000654425810020BDE8F883EE18A6EB0E06E1
:1045A000B6B26FB11FFA82F8DFF820903846424663
:1045B000C847E168324607EB0800C847B4F808C0AE
:1045C000E680E5E70220BDE8F88300BFD17500086A
:1045D00002890088B2FBF0F0704700BF438901896F
:1045E0000288581A90FBF2F080B2704780887047BA
:1045F000C3888088181A80B2704700BF61B1C28832
:104600004388A2EB030C8C4508DA8A1A13449BB248
:104610008288438011448180002070470B44B3FBA3
:10462000F2FC02FB1C339BB2F2E700BF30B532480C
:10463000017B847B00292ED054B100212F4A0D46E6
:1046400093689B07FCD50131CBB2A342D560F7D369
:10465000037A93B12A495A1E4C1ED2B21C44A41AA2
:10466000264A1944002593689B07FCD511F8013CA4
:10467000D36001F801598C42F5D1C07B50B10021C3
:104680001E4A0C4693689B07FCD50131CBB283428E
:10469000D460F7D330BD64B1184A8C460D46936898
:1046A0009B07FCD50CF1010C5FFA8CF39C42D560A2
:1046B000F5D8058985B1114A4FF0000E93689B0724
:1046C000FCD5431801315FFA81FC1C7CD460AC45F9
:1046D000614683F810E0F1D3C07B0028DAD00021D6
:1046E000064A0C4693689D07FCD50131CBB298422F
:1046F000D460F7D830BD00BFB02D0020003001409D
:10470000C02D0020094A4FF080431021C2F8141C2C
:10471000DA6822F00102DA601A6922F001021A61F5
:104720001A6822F001021A60704700BF00000140C1
:10473000674A68484FF08043042110B5C2F814144A
:104740001024C2F810146FF00102C0F8104C1A6166
:10475000DA68614C42F00102DA601A68A17A42F02C
:1047600001021A60A9BBB4F858005C4AD4F800C032
:1047700032F81020944563D2D3F8001421F00101DF
:10478000C3F80014D3F80C14013021F00101A4F88F
:104790005800C3F80C14E06DD3F8101400FB02F2BB
:1047A000013A21F00101C3F81014C3F82C24D3F806
:1047B000002422F08002C3F80024D3F80C2442F035
:1047C0000102C3F80C24D3F8002442F00102C3F81C
:1047D00000244349434B01F150009847022850D030
:1047E000414B9847236F032B17D83C4A02EB4303F6
:1047F00093F85431A3B9364B4FF400515961236FEC
:1048000002EB430292F85531ABB1314B4FF4804289
:104810001A61236F0133236710BD00232F4A2367DA
:104820002B4B4FF400511961236F02EB430292F8B6
:104830005531002BE9D1264B4FF480425A61E8E70D
:104840000120A072D3F80004A4F8581020F0010051
:10485000C3F80004D3F80C04E16D20F00100C3F8A4
:104860000C04D3F8100401FB02F2013A20F001001D
:10487000C3F81004C3F82C24D3F8002442F08002BB
:1048800099E74FF080431249D3F80C2422F001023B
:10489000C3F80C24D3F8102422F00102C3F810242A
:1048A000D3F800244FF4004022F00102C3F80024A2
:1048B000002348610D4AA372A4F8583063739047EF
:1048C0000028A9D0034B4FF48042C3F8142C10BD2C
:1048D0000010014000000140B02D002004860008B7
:1048E000C02D0020454500082D46000855740008DD
:1048F0002DE9F04F574D95B00646994605F16000F9
:10490000554B9DF878400F4690469847B04203D2E9
:10491000002015B0BDE8F08F504B9847504BC008B1
:104920002881984708F107084FEAE80883460028DD
:1049300067D04C4A4C49136843F08003136001234D
:104940002B730423AB738847AB7BC3F150038246C0
:10495000DBB2B5F808B0A3EB0B03EB73B8F1000FB3
:1049600042D1CDF80080414B5A46002102A8984719
:10497000002C5DD05EB30BFB0AF3DFF8F4800193EB
:10498000009BDFF8F0B002AA4FF0000902EB030A27
:104990004346B84637464E4699462A89019B12FB44
:1049A00006F413FA84F4009B4444D21A92B2324BB8
:1049B00050462146984702A95846C8472B4B2A899A
:1049C000204600219847731C9EB2B742E5D1294882
:1049D0002A4CA047B5F87430984237D8A5F87430FF
:1049E000012015B0BDE8F08FB9F1010F1AD0B9F16F
:1049F000020F0ABFABEB080800231FFA88F30093ED
:104A0000B1E7194B9847174A85F80CB00423AB73EC
:104A10001368A0EB060A23F0800313601FFA8AFADA
:104A20004C2396E7ABEB0808C8F34F0300939AE7D3
:104A3000002ED5D0DFF838800E4D4746013402A94C
:104A40002846A4B2B847A642F8D1C9E70948A0470A
:104A50000346C3E7B02D0020D145000845550008A6
:104A6000C1540008003001408D5B00080576000845
:104A7000DD440008102E0020D1750008DD45000837
:104A800038B5274B984710B1264C637B03B138BD2E
:104A9000254B04F1100104F1600098470228F6D07C
:104AA000E26DA38802FB03F3204A4FF400414FF06C
:104AB00080451161A2F58052013B4FF48041C2F85C
:104AC000101CEB6201221A4B62739847D5F8002440
:104AD000E36D22F00102C5F80024D5F80C2422F081
:104AE0000102C5F80C24D5F81024013B22F0010284
:104AF000C5F81024C5F82C34D5F8003423F0800311
:104B0000C5F80034D5F80C3443F00103C5F80C3473
:104B1000D5F8003443F00103C5F8003438BD00BFB8
:104B200055740008B02D00204545000800100140D4
:104B30002D46000808B50348034B9847B0FA80F0AB
:104B4000400908BD102E0020DD4500082DE9F04F7A
:104B5000BA4BBB4A1B68934289B000F0698102F1ED
:104B6000B77202F55852934200F05F81B54A934202
:104B700000F0618102F1B77202F55852934215BFFD
:104B80000020092001210A21AF4AB04FDFF8C0827E
:104B9000ADF80000A2FB032300254FF4E0609B0C5E
:104BA000B3FBF1F35A1EFB650292ADF8025001957A
:104BB0008DF80C50C04740F20170C047A54EDFF899
:104BC0009892DFF898A22A4601211C204FF08044D9
:104BD000B047012211461D20B0472368A04E23F0A4
:104BE00001032360D4F8003423F00103C4F8003437
:104BF00020466946B04769469A48B04723689A48B4
:104C000023F080032360D4F8003423F08003C4F839
:104C10000034E36823F00103E360D4F80C3423F09C
:104C20000103C4F80C344FF4804B6FF0010323618F
:104C30000422C4F8103410218C4C5B46A047CAF8FB
:104C400014BC48464FF4004304221021A04710230F
:104C50004FF400421E46C9F8142019468448042225
:104C6000A047CAF814683146484604224FF400535E
:104C7000A0475B46314648460422A04748467D4B44
:104C800001224FF40051984759464846794B01227A
:104C900098473146744880230422A0470423802289
:104CA0009B46CAF8102C31461A467348A047334633
:104CB0005A463146C9F810B46B48DFF8C091A04796
:104CC000CAF8146C40F20C60C04701210846C8477E
:104CD0006B48DFF8B0A10121C8475A466248DFF8A7
:104CE000A89108231821A0475A465F48202318217D
:104CF000A0474FF482724FF44043CDE900230022D5
:104D00004FF40073CDE902234FF0080B002200237B
:104D1000CDE9042369465D4B5D48CDF818B098474E
:104D20005B480121D04729465948D047594B58483C
:104D3000984740F20960C047574B012098472946E1
:104D40005B464B480122A047544B554CD3F80424F2
:104D500022F47022C3F80424D3F80424C3F80424F2
:104D6000D3F8082422F40062C3F80824D3F82C24D2
:104D700022F47002C3F82C24D3F82C24C3F82C247A
:104D8000D3F8082422F46022C3F80824D3F80824B6
:104D900042F46022C3F80824D3F8082442F48012B5
:104DA000C3F80824D3F8342422F01F02C3F83424B3
:104DB000D3F8342442F00302C3F83424D3F8102487
:104DC00022F46062C3F81024D3F81024C3F810242E
:104DD000D3F8802422F44052C3F88024D3F88024EE
:104DE00042F48052C3F88024D3F8082401200243FF
:104DF000C3F808242B4B98472B4B2C48984729463F
:104E00002B484FF49042C847482307F160002849D7
:104E10004FF48072A047324629463846C847254B92
:104E20007B60BD7209B0BDE8F08F05200621ABE6BE
:104E300003200421A8E607200821A5E600000020A1
:104E4000006CDC0200D8B80583DE1B43B02D0020C7
:104E5000910C0008D90B000800100140000001402F
:104E6000E90F000800040040000C014001070008A1
:104E700000080140C10A000800140140D90A0008D6
:104E800000043000550F000805760008D10E000818
:104E900000300140050F0008D10C0008002001403F
:104EA000BD440008A9130008C905000800240140FA
:104EB000282E00202C01FA00B0F5FA7F054B05D210
:104EC000C8289ABFC8229A80988070474FF4FA7217
:104ED0009A807047B02D0020B0F5CD7F0CD23228DB
:104EE00006D9084A084BD080B3FBF0F01060704739
:104EF000044B3222DA807047024B4FF4CD72DA80D5
:104F0000704700BFB02D002048E801004FF08043FB
:104F100010B4DA681649174C22F00102DA601A69F7
:104F200022F001021A611A68002022F00102887240
:104F30001A60D3F80C24A1F8580022F00102C3F83B
:104F40000C24D3F81024487322F00102C3F8102473
:104F5000D3F80024084922F00102C3F800244FF4DA
:104F600000404FF48043606110BCC1F8143C7047AE
:104F7000B02D00200010014000000140014BD888F6
:104F8000704700BFB02D00200B4AD2F8083443F41C
:104F90008003C2F80834D2F800349B07FBD56FF0C9
:104FA0000203C2F80034D2F84C34044A12FA83F3F4
:104FB00093F85C01704700BF0020014004860008A0
:104FC000024B4FF48042C3F8102C704700000140A0
:104FD000024B4FF48042C3F8142C7047000001408C
:104FE00010B5054A054BB2F874009847BDE810406B
:104FF000034B0A20184700BFB02D00207D37000862
:10500000AD3700082DE9F04F85B012FB00F0019399
:1050100013FB01F30731CF102D4985B298B24B89AC
:10502000B1F80E900390904607338A89DB0800930D
:10503000131A9BB29A4209EB050142D989B28945FC
:105040003FD2009ADFF88CA013FB02F39CB2039BC3
:10505000013B9BB202934FF0000B8026019BBBFBF0
:10506000F3FC0E9B0CF0070E46FA0EFECCF3CC0CB4
:105070001FFA8EFE9C440022B2FBF8F307FB03F3F9
:10508000511C1CF8030009EB02039BB28AB21EEA12
:10509000000F04EBD30103F0070346FA03F304D037
:1050A0001AF8010003430AF801309542E4D1009B4D
:1050B000029A1C445A45A4B20BF1010301D09B464D
:1050C000CCE7034B039ADD811A8205B0BDE8F08F6F
:1050D00028760020AC8800202DE9F04F89B0069298
:1050E0009DF84C20029212FB03F6434A9DF848803B
:1050F000D789149A0392B6B2BA1992B21144814276
:10510000079262DC0733DD103B4B069A99895B8975
:1051100018FB02F2073392B2D8088B1A9BB299425D
:10512000049041D907998F423ED213FB00F3013A14
:105130009CB2DFF8C8A093B205934FF0000B4FF07C
:105140008009029BBBFBF3FC01230CF0070E03FA62
:105150000EFE039BCCF3CC0C1FFA8EFE9C44002267
:10516000B2FBF8F305FB03F3511C1CF80300BB185A
:105170009BB28AB21EEA000F04EBD30103F00703CF
:1051800049FA03F304D01AF8010003430AF8013086
:105190009642E5D1049B059A1C449345A4B20BF1B9
:1051A000010301D09B46CCE7134A0699138A08FBFA
:1051B00001F89845B8BF98460799114BD181A2F8DC
:1051C000108009B0BDE8F04F18470B4C0B496378CD
:1051D000012000220090208A2276C3F3C103094CEB
:1051E0003A46A04710B909B0BDE8F08F02494A8A93
:1051F0000B89CA810B82F6E728760020AC88002054
:10520000E1290008F14800082DE9F04F89B04FF07E
:10521000000B9DF848700693454B17FB02F5DE899D
:1052200083F818B0ADB29DF84C30029373199BB25D
:10523000194407938142149B039363DC3C4A069C08
:10524000029B9189528913FB04F307329BB2D00869
:10525000CA1A92B204F10708914204904FEAE80892
:105260003FD907998E423CD2013B12FB00F29BB220
:10527000DFF8C0A0059394B24FF08009029BBBFBFE
:10528000F3FC01230CF0070E03FA0EFE039BCCF394
:10529000CC0C1FFA8EFE9C440022B2FBF7F308FBF5
:1052A00003F3511C1CF80300B3189BB28AB21EEA28
:1052B000000F04EBD30103F0070349FA03F304D012
:1052C0001AF8010003430AF801309542E5D1049B26
:1052D000059A1C449345A4B20BF1010301D09B46EF
:1052E000CCE713480699029B028A01FB03F3934221
:1052F000B8BF13460799104AC181038209B0BDE8BF
:10530000F04F10470A480B4943780C4C0122009299
:10531000008AC3F3C1033246A04710B909B0BDE803
:10532000F08F03494A8A0B89CA810B82F6E700BFD6
:1053300028760020AC880020E1290008F148000808
:1053400030B5354C94F82430012B85B03ED0202B5D
:105350004CD0212B23D02378E28C216A608913F072
:10536000040F4FEA42024FF00103CDE901310093EF
:10537000217D14BF294D2A4D92B20823A847E38905
:10538000E28C03EB4203E381238A206A254A182B2F
:1053900038BF1823238205B0BDE83040104721787C
:1053A000236AE28C608911F0040F4FF00101CDE90E
:1053B0000113009118BF194D217D08BF184D182306
:1053C000A847E389E28C1344E381DDE72178206A72
:1053D000009311F0040FCDE90130E28C217D60894A
:1053E00014BF0E4D0E4D0823A847EAE72378E28C40
:1053F000216A608913F0040F4FEA42024FF0010363
:10540000CDE901310093217D14BF044D044D92B2CA
:105410001823A847B3E700BF28760020D95000081A
:1054200009520008ED78000870B50D4C00251E23C8
:10543000608188202060A181238123612946094859
:10544000094BE5814FF4905225759847294604F1A0
:105450002800A5612577054BBDE87040202218473C
:1054600028760020AC760020057600085D7E0008D6
:10547000024B987800F00100704700BF28760020AA
:10548000024B1A7860F3C6021A7070472876002023
:10549000024B1A8860F3CA121A80704728760020DF
:1054A000024B5A7860F3C7125A7070472876002072
:1054B000024B9A7860F3C3029A70704728760020F6
:1054C000024B9878C0F3C000704700BF28760020D8
:1054D000024B5A7860F3C4025A7070472876002055
:1054E000024B1A7860F382021A7070472876002007
:1054F000014B1E221A81704728760020014B18812B
:10550000704700BF28760020024B9A7860F30102B2
:105510009A70704728760020024B1A7860F30002D8
:105520001A70704728760020024B1A7860F3410207
:105530001A70704728760020014B1889704700BF09
:1055400028760020014B5889704700BF287600203C
:105550002DE9F041994C94F8253084B00546002B94
:1055600040F01681964B2846984770B9A078954B25
:1055700000F003009847A5F120025F2A034660600F
:1055800000F2DA800168202007E061688E4B28462F
:1055900098478E4B984763681968DB682D1A9AB252
:1055A0008B4803FB05118B4B984794F800E060682B
:1055B0001EF0010F836813D04268DD1DED087AB13B
:1055C000EDB2002305FB0341013391F84A2042F07C
:1055D000400281F84A204268DBB29342F2D38368EA
:1055E00094F90120002AC0F2AB801EF0020F00F0F7
:1055F0008C80DA1DD2085100C9B2012940F28580A1
:105600008E1EF6B2042ED2B240F2C880704DD4F88D
:105610004970531CEE583E43C4F849604E1EC6F311
:105620008507012F2B445FFA86FC41D0D4F84D60EA
:10563000D3F80480022F46EA0806C4F84D6037D03C
:10564000D4F85160D3F80880032F46EA0806C4F85E
:1056500051602DD0D4F85560D3F80C80042F46EA61
:105660000806C4F8556023D0D4F85960D3F81080E8
:10567000052F46EA0806C4F8596019D0D4F85D60D1
:10568000D3F81480062F46EA0806C4F85D600FD0F0
:10569000D4F86160D3F81880072F46EA0806C4F8EA
:1056A000616005D0DE69D4F865303343C4F86530F5
:1056B0000CF0FC035E1C6345F6B224D02644B718F8
:1056C00096F848C097F8487047EA0C0786F8487083
:1056D0009E1CF6B2B14216D92644B71896F848C0B7
:1056E00097F848700333DBB247EA0C07994286F813
:1056F000487008D923441A4493F8481092F8482077
:105700000A4383F84820836800E0314D218882886D
:10571000C1F3C311CDE901152578217D60891EF003
:10572000040FC5F3C30514BF2B4C2C4C00959BB242
:10573000A04704B0BDE8F0812949016080202CE732
:10574000C3F34702951C911E05F0070601F00701FF
:105750000125476805FA01F1B540DE1DD208C9B23E
:10576000EDB2C6F3C706002F3FF43FAF0D43002351
:1057700004EB020C01339CF8481029438CF84810C4
:105780004168DBB232448B42D2B2F1D383682CE75A
:105790000022144B84F825209847E3E60C4D531C57
:1057A0006A1C16442B442A4612F801CF13F8011B39
:1057B000B24241EA0C011170F6D1A4E7287600202C
:1057C000A9620008897800087D610008B1610008BD
:1057D00070760020D1750008D950000809520008E1
:1057E000AC76002041530008044A1378C3F3C30386
:1057F000012B84BF4000C0B210757047287600208E
:105800002DE9F04FA0F1200383B0012B00900D464D
:10581000174640F213810124A046002840F0108171
:1058200001948D4B8D4E04FB05F098470246306283
:10583000002800F00E81002D00F0E580B9684FF0DF
:10584000000E2144CDE0C0236FF03F0C6FF07F0BC2
:105850004FF0800900F0020ABAF1000F04BFDC46E5
:105860004B4610F0040F04D04CF020034FFA83FC99
:10587000DBB210F0080F04D04CF010034FFA83FC99
:10588000DBB210F0100F04D04CF008034FFA83FC89
:10589000DBB210F0200F04D04CF004034FFA83FC6D
:1058A000DBB210F0400F04D04CF002034FFA83FC3F
:1058B000DBB2C0091CBF4CF00103DBB2B8F1010F31
:1058C000137000F0868011F8020C10F0010900F04E
:1058D0009280C0236FF03F0C6FF07F0A4FF0800979
:1058E00000F0020BBBF1000F04BFD4464B4610F092
:1058F000040F04D04CF020034FFA83FCDBB210F00D
:10590000080F04D04CF010034FFA83FCDBB210F008
:10591000100F04D04CF008034FFA83FCDBB210F0F8
:10592000200F04D04CF004034FFA83FCDBB210F0DC
:10593000400F04D04CF002034FFA83FCDBB2C009E5
:105940001CBF4CF00103DBB2B8F1030F537040D120
:1059500011F8030C10F0010951D0C0236FF03F0C77
:105960006FF07F0A4FF0800900F0020BBBF1000FCF
:1059700004BFD4464B4610F0040F04D04CF0200373
:105980004FFA83FCDBB210F0080F04D04CF0100388
:105990004FFA83FCDBB210F0100F04D04CF0080378
:1059A0004FFA83FCDBB210F0200F04D04CF004035C
:1059B0004FFA83FCDBB210F0400F04D04CF002032E
:1059C0004FFA83FCDBB2C0091CBF4CF00103DBB211
:1059D00093700EF1010E1FFA8EF39D422144224472
:1059E00011D911F8010C10F001097FF42CAF4023FC
:1059F0009C46CB462EE740239C46CA4670E7402390
:105A00009C46CA46B0E718FB05F1154B89B23846EB
:105A100098470099019B86F82410F189F58405FACE
:105A200003F311FA83F3718900228B4286F8252053
:105A30000EDC0C4B03B0BDE8F04F18470324A04622
:105A40000346A3F12003B3FA83F35B090193E8E66D
:105A5000327603B0BDE8F08FDD78000828760020AC
:105A6000FD450008415300081F2909D8202807D800
:105A7000044B4A1C19445A7681F8280001207047CB
:105A8000002070472876002030B4154B5C7E187ECD
:105A90000CBBC20008322024D1B2B1B15A6855689B
:105AA0001A78C2F3C30C1A7D05FB0C2212FB01F21B
:105AB000D98992B291420AD2598A01300A44B0FB84
:105AC000F4F104FB1100DA81187630BC7047002233
:105AD0001A7630BC70471A1892F82810DDE700BF1C
